{
  "contractName": "BinanceSmartChainBridge",
  "abi": [
    {
      "inputs": [
        {
          "internalType": "address",
          "name": "_bnbToken",
          "type": "address"
        }
      ],
      "stateMutability": "nonpayable",
      "type": "constructor"
    },
    {
      "anonymous": false,
      "inputs": [
        {
          "indexed": true,
          "internalType": "bytes32",
          "name": "messageId",
          "type": "bytes32"
        },
        {
          "indexed": false,
          "internalType": "address",
          "name": "recipient",
          "type": "address"
        },
        {
          "indexed": false,
          "internalType": "uint256",
          "name": "amount",
          "type": "uint256"
        },
        {
          "indexed": false,
          "internalType": "string",
          "name": "sourceChain",
          "type": "string"
        }
      ],
      "name": "MessageReceived",
      "type": "event"
    },
    {
      "anonymous": false,
      "inputs": [
        {
          "indexed": true,
          "internalType": "bytes32",
          "name": "messageId",
          "type": "bytes32"
        },
        {
          "indexed": false,
          "internalType": "address",
          "name": "sender",
          "type": "address"
        },
        {
          "indexed": false,
          "internalType": "uint256",
          "name": "amount",
          "type": "uint256"
        },
        {
          "indexed": false,
          "internalType": "string",
          "name": "destinationChain",
          "type": "string"
        }
      ],
      "name": "MessageSent",
      "type": "event"
    },
    {
      "inputs": [],
      "name": "admin",
      "outputs": [
        {
          "internalType": "address",
          "name": "",
          "type": "address"
        }
      ],
      "stateMutability": "view",
      "type": "function"
    },
    {
      "inputs": [],
      "name": "bnbToken",
      "outputs": [
        {
          "internalType": "contract IERC20",
          "name": "",
          "type": "address"
        }
      ],
      "stateMutability": "view",
      "type": "function"
    },
    {
      "inputs": [
        {
          "internalType": "bytes32",
          "name": "messageId",
          "type": "bytes32"
        }
      ],
      "name": "isMessageProcessed",
      "outputs": [
        {
          "internalType": "bool",
          "name": "",
          "type": "bool"
        }
      ],
      "stateMutability": "view",
      "type": "function"
    },
    {
      "inputs": [
        {
          "internalType": "bytes32",
          "name": "",
          "type": "bytes32"
        }
      ],
      "name": "processedMessages",
      "outputs": [
        {
          "internalType": "bool",
          "name": "",
          "type": "bool"
        }
      ],
      "stateMutability": "view",
      "type": "function"
    },
    {
      "inputs": [
        {
          "internalType": "string",
          "name": "destinationChain",
          "type": "string"
        },
        {
          "internalType": "address",
          "name": "recipient",
          "type": "address"
        },
        {
          "internalType": "uint256",
          "name": "amount",
          "type": "uint256"
        }
      ],
      "name": "sendMessage",
      "outputs": [],
      "stateMutability": "payable",
      "type": "function"
    },
    {
      "inputs": [
        {
          "internalType": "bytes32",
          "name": "messageId",
          "type": "bytes32"
        },
        {
          "internalType": "address",
          "name": "sender",
          "type": "address"
        },
        {
          "internalType": "address",
          "name": "recipient",
          "type": "address"
        },
        {
          "internalType": "uint256",
          "name": "amount",
          "type": "uint256"
        },
        {
          "internalType": "string",
          "name": "sourceChain",
          "type": "string"
        }
      ],
      "name": "receiveMessage",
      "outputs": [],
      "stateMutability": "nonpayable",
      "type": "function"
    }
  ],
  "bytecode": "0x608060405234801561000f575f80fd5b50604051610e9e380380610e9e83398181016040528101906100319190610115565b3360015f6101000a81548173ffffffffffffffffffffffffffffffffffffffff021916908373ffffffffffffffffffffffffffffffffffffffff1602179055508060025f6101000a81548173ffffffffffffffffffffffffffffffffffffffff021916908373ffffffffffffffffffffffffffffffffffffffff16021790555050610140565b5f80fd5b5f73ffffffffffffffffffffffffffffffffffffffff82169050919050565b5f6100e4826100bb565b9050919050565b6100f4816100da565b81146100fe575f80fd5b50565b5f8151905061010f816100eb565b92915050565b5f6020828403121561012a576101296100b7565b5b5f61013784828501610101565b91505092915050565b610d518061014d5f395ff3fe608060405260043610610054575f3560e01c80631bd31ef6146100585780632b17b6a91461009457806388ba16ab146100be578063affc215f146100fa578063e9e33e8b14610116578063f851a4401461013e575b5f80fd5b348015610063575f80fd5b5061007e600480360381019061007991906105b2565b610168565b60405161008b91906105f7565b60405180910390f35b34801561009f575f80fd5b506100a861018d565b6040516100b5919061068a565b60405180910390f35b3480156100c9575f80fd5b506100e460048036038101906100df91906105b2565b6101b2565b6040516100f191906105f7565b60405180910390f35b610114600480360381019061010f919061084d565b6101ce565b005b348015610121575f80fd5b5061013c600480360381019061013791906108b9565b61031f565b005b348015610149575f80fd5b5061015261051e565b60405161015f919061095b565b60405180910390f35b5f805f8381526020019081526020015f205f9054906101000a900460ff169050919050565b60025f9054906101000a900473ffffffffffffffffffffffffffffffffffffffff1681565b5f602052805f5260405f205f915054906101000a900460ff1681565b60025f9054906101000a900473ffffffffffffffffffffffffffffffffffffffff1673ffffffffffffffffffffffffffffffffffffffff166323b872dd3330846040518463ffffffff1660e01b815260040161022c93929190610983565b6020604051808303815f875af1158015610248573d5f803e3d5ffd5b505050506040513d601f19601f8201168201806040525081019061026c91906109e2565b6102ab576040517f08c379a00000000000000000000000000000000000000000000000000000000081526004016102a290610a67565b60405180910390fd5b5f42338484876040516020016102c5959493929190610b56565b604051602081830303815290604052805190602001209050807f1e2fd99e146720cc637dc68804d00fec4c8e871519c4f06f7355687d531fed4233848760405161031193929190610be8565b60405180910390a250505050565b60015f9054906101000a900473ffffffffffffffffffffffffffffffffffffffff1673ffffffffffffffffffffffffffffffffffffffff163373ffffffffffffffffffffffffffffffffffffffff16146103ae576040517f08c379a00000000000000000000000000000000000000000000000000000000081526004016103a590610c6e565b60405180910390fd5b6103b785610168565b156103f7576040517f08c379a00000000000000000000000000000000000000000000000000000000081526004016103ee90610cd6565b60405180910390fd5b61040085610543565b60025f9054906101000a900473ffffffffffffffffffffffffffffffffffffffff1673ffffffffffffffffffffffffffffffffffffffff1663a9059cbb84846040518363ffffffff1660e01b815260040161045c929190610cf4565b6020604051808303815f875af1158015610478573d5f803e3d5ffd5b505050506040513d601f19601f8201168201806040525081019061049c91906109e2565b6104db576040517f08c379a00000000000000000000000000000000000000000000000000000000081526004016104d290610a67565b60405180910390fd5b847f8645342bb16bf17dde1d74c272a01fc207ecbed8572fc58ee8e49574fd82911984848460405161050f93929190610be8565b60405180910390a25050505050565b60015f9054906101000a900473ffffffffffffffffffffffffffffffffffffffff1681565b60015f808381526020019081526020015f205f6101000a81548160ff02191690831515021790555050565b5f604051905090565b5f80fd5b5f80fd5b5f819050919050565b6105918161057f565b811461059b575f80fd5b50565b5f813590506105ac81610588565b92915050565b5f602082840312156105c7576105c6610577565b5b5f6105d48482850161059e565b91505092915050565b5f8115159050919050565b6105f1816105dd565b82525050565b5f60208201905061060a5f8301846105e8565b92915050565b5f73ffffffffffffffffffffffffffffffffffffffff82169050919050565b5f819050919050565b5f61065261064d61064884610610565b61062f565b610610565b9050919050565b5f61066382610638565b9050919050565b5f61067482610659565b9050919050565b6106848161066a565b82525050565b5f60208201905061069d5f83018461067b565b92915050565b5f80fd5b5f80fd5b5f601f19601f8301169050919050565b7f4e487b71000000000000000000000000000000000000000000000000000000005f52604160045260245ffd5b6106f1826106ab565b810181811067ffffffffffffffff821117156107105761070f6106bb565b5b80604052505050565b5f61072261056e565b905061072e82826106e8565b919050565b5f67ffffffffffffffff82111561074d5761074c6106bb565b5b610756826106ab565b9050602081019050919050565b828183375f83830152505050565b5f61078361077e84610733565b610719565b90508281526020810184848401111561079f5761079e6106a7565b5b6107aa848285610763565b509392505050565b5f82601f8301126107c6576107c56106a3565b5b81356107d6848260208601610771565b91505092915050565b5f6107e982610610565b9050919050565b6107f9816107df565b8114610803575f80fd5b50565b5f81359050610814816107f0565b92915050565b5f819050919050565b61082c8161081a565b8114610836575f80fd5b50565b5f8135905061084781610823565b92915050565b5f805f6060848603121561086457610863610577565b5b5f84013567ffffffffffffffff8111156108815761088061057b565b5b61088d868287016107b2565b935050602061089e86828701610806565b92505060406108af86828701610839565b9150509250925092565b5f805f805f60a086880312156108d2576108d1610577565b5b5f6108df8882890161059e565b95505060206108f088828901610806565b945050604061090188828901610806565b935050606061091288828901610839565b925050608086013567ffffffffffffffff8111156109335761093261057b565b5b61093f888289016107b2565b9150509295509295909350565b610955816107df565b82525050565b5f60208201905061096e5f83018461094c565b92915050565b61097d8161081a565b82525050565b5f6060820190506109965f83018661094c565b6109a3602083018561094c565b6109b06040830184610974565b949350505050565b6109c1816105dd565b81146109cb575f80fd5b50565b5f815190506109dc816109b8565b92915050565b5f602082840312156109f7576109f6610577565b5b5f610a04848285016109ce565b91505092915050565b5f82825260208201905092915050565b7f5472616e73666572206661696c656400000000000000000000000000000000005f82015250565b5f610a51600f83610a0d565b9150610a5c82610a1d565b602082019050919050565b5f6020820190508181035f830152610a7e81610a45565b9050919050565b5f819050919050565b610a9f610a9a8261081a565b610a85565b82525050565b5f8160601b9050919050565b5f610abb82610aa5565b9050919050565b5f610acc82610ab1565b9050919050565b610ae4610adf826107df565b610ac2565b82525050565b5f81519050919050565b5f81905092915050565b5f5b83811015610b1b578082015181840152602081019050610b00565b5f8484015250505050565b5f610b3082610aea565b610b3a8185610af4565b9350610b4a818560208601610afe565b80840191505092915050565b5f610b618288610a8e565b602082019150610b718287610ad3565b601482019150610b818286610ad3565b601482019150610b918285610a8e565b602082019150610ba18284610b26565b91508190509695505050505050565b5f610bba82610aea565b610bc48185610a0d565b9350610bd4818560208601610afe565b610bdd816106ab565b840191505092915050565b5f606082019050610bfb5f83018661094c565b610c086020830185610974565b8181036040830152610c1a8184610bb0565b9050949350505050565b7f4f6e6c792061646d696e2063616e2072656365697665206d65737361676573005f82015250565b5f610c58601f83610a0d565b9150610c6382610c24565b602082019050919050565b5f6020820190508181035f830152610c8581610c4c565b9050919050565b7f4d65737361676520616c72656164792070726f636573736564000000000000005f82015250565b5f610cc0601983610a0d565b9150610ccb82610c8c565b602082019050919050565b5f6020820190508181035f830152610ced81610cb4565b9050919050565b5f604082019050610d075f83018561094c565b610d146020830184610974565b939250505056fea264697066735822122072ded6f1b11554de3d1d1e323aa9a313e0429cbc33c27df91c7e500b84f5c84464736f6c63430008150033",
  "immutableReferences": {},
  "source": "// SPDX-License-Identifier: MIT\npragma solidity ^0.8.0;\n\nimport \"./BridgeBase.sol\";\nimport \"@openzeppelin/contracts/token/ERC20/IERC20.sol\";\n\ncontract BinanceSmartChainBridge is BridgeBase {\n    address public admin;\n    IERC20 public bnbToken;\n    \n    constructor(address _bnbToken) {\n        admin = msg.sender;\n        bnbToken = IERC20(_bnbToken);\n    }\n    \n    function sendMessage(string memory destinationChain, address recipient, uint256 amount) external payable override {\n        require(bnbToken.transferFrom(msg.sender, address(this), amount), \"Transfer failed\");\n        bytes32 messageId = keccak256(abi.encodePacked(block.timestamp, msg.sender, recipient, amount, destinationChain));\n        emit MessageSent(messageId, msg.sender, amount, destinationChain);\n    }\n    \n    function receiveMessage(bytes32 messageId, address sender, address recipient, uint256 amount, string memory sourceChain) external override {\n        require(msg.sender == admin, \"Only admin can receive messages\");\n        require(!isMessageProcessed(messageId), \"Message already processed\");\n        \n        _setMessageAsProcessed(messageId);\n        require(bnbToken.transfer(recipient, amount), \"Transfer failed\");\n        \n        emit MessageReceived(messageId, recipient, amount, sourceChain);\n    }\n}\n",
  "sourcePath": "/home/arhan/eigenlayer-don-3/eth-contracts/contracts/BinanceSmartChainBridge.sol",
  "compiler": {
    "name": "solc",
    "version": "0.8.21+commit.d9974bed.Emscripten.clang"
  },
  "schemaVersion": "3.4.16",
  "updatedAt": "2024-10-16T19:09:58.154Z",
  "devdoc": {
    "kind": "dev",
    "methods": {},
    "version": 1
  },
  "userdoc": {
    "kind": "user",
    "methods": {},
    "version": 1
  }
}