{
  "contractName": "EthereumBridge",
  "abi": [
    {
      "inputs": [],
      "stateMutability": "nonpayable",
      "type": "constructor"
    },
    {
      "anonymous": false,
      "inputs": [
        {
          "indexed": true,
          "internalType": "bytes32",
          "name": "messageId",
          "type": "bytes32"
        },
        {
          "indexed": false,
          "internalType": "address",
          "name": "recipient",
          "type": "address"
        },
        {
          "indexed": false,
          "internalType": "uint256",
          "name": "amount",
          "type": "uint256"
        },
        {
          "indexed": false,
          "internalType": "string",
          "name": "sourceChain",
          "type": "string"
        }
      ],
      "name": "MessageReceived",
      "type": "event"
    },
    {
      "anonymous": false,
      "inputs": [
        {
          "indexed": true,
          "internalType": "bytes32",
          "name": "messageId",
          "type": "bytes32"
        },
        {
          "indexed": false,
          "internalType": "address",
          "name": "sender",
          "type": "address"
        },
        {
          "indexed": false,
          "internalType": "uint256",
          "name": "amount",
          "type": "uint256"
        },
        {
          "indexed": false,
          "internalType": "string",
          "name": "destinationChain",
          "type": "string"
        }
      ],
      "name": "MessageSent",
      "type": "event"
    },
    {
      "inputs": [],
      "name": "admin",
      "outputs": [
        {
          "internalType": "address",
          "name": "",
          "type": "address"
        }
      ],
      "stateMutability": "view",
      "type": "function"
    },
    {
      "inputs": [
        {
          "internalType": "bytes32",
          "name": "messageId",
          "type": "bytes32"
        }
      ],
      "name": "isMessageProcessed",
      "outputs": [
        {
          "internalType": "bool",
          "name": "",
          "type": "bool"
        }
      ],
      "stateMutability": "view",
      "type": "function"
    },
    {
      "inputs": [
        {
          "internalType": "bytes32",
          "name": "",
          "type": "bytes32"
        }
      ],
      "name": "processedMessages",
      "outputs": [
        {
          "internalType": "bool",
          "name": "",
          "type": "bool"
        }
      ],
      "stateMutability": "view",
      "type": "function"
    },
    {
      "inputs": [
        {
          "internalType": "string",
          "name": "destinationChain",
          "type": "string"
        },
        {
          "internalType": "address",
          "name": "recipient",
          "type": "address"
        },
        {
          "internalType": "uint256",
          "name": "amount",
          "type": "uint256"
        }
      ],
      "name": "sendMessage",
      "outputs": [],
      "stateMutability": "payable",
      "type": "function"
    },
    {
      "inputs": [
        {
          "internalType": "bytes32",
          "name": "messageId",
          "type": "bytes32"
        },
        {
          "internalType": "address",
          "name": "sender",
          "type": "address"
        },
        {
          "internalType": "address",
          "name": "recipient",
          "type": "address"
        },
        {
          "internalType": "uint256",
          "name": "amount",
          "type": "uint256"
        },
        {
          "internalType": "string",
          "name": "sourceChain",
          "type": "string"
        }
      ],
      "name": "receiveMessage",
      "outputs": [],
      "stateMutability": "nonpayable",
      "type": "function"
    }
  ],
  "bytecode": "0x608060405234801561000f575f80fd5b503360015f6101000a81548173ffffffffffffffffffffffffffffffffffffffff021916908373ffffffffffffffffffffffffffffffffffffffff160217905550610aa08061005d5f395ff3fe608060405260043610610049575f3560e01c80631bd31ef61461004d57806388ba16ab14610089578063affc215f146100c5578063e9e33e8b146100e1578063f851a44014610109575b5f80fd5b348015610058575f80fd5b50610073600480360381019061006e9190610426565b610133565b604051610080919061046b565b60405180910390f35b348015610094575f80fd5b506100af60048036038101906100aa9190610426565b610158565b6040516100bc919061046b565b60405180910390f35b6100df60048036038101906100da919061064d565b610174565b005b3480156100ec575f80fd5b50610107600480360381019061010291906106b9565b61022a565b005b348015610114575f80fd5b5061011d610392565b60405161012a919061075b565b60405180910390f35b5f805f8381526020019081526020015f205f9054906101000a900460ff169050919050565b5f602052805f5260405f205f915054906101000a900460ff1681565b8034146101b6576040517f08c379a00000000000000000000000000000000000000000000000000000000081526004016101ad906107ce565b60405180910390fd5b5f42338484876040516020016101d09594939291906108bd565b604051602081830303815290604052805190602001209050807f1e2fd99e146720cc637dc68804d00fec4c8e871519c4f06f7355687d531fed4233848760405161021c9392919061095e565b60405180910390a250505050565b60015f9054906101000a900473ffffffffffffffffffffffffffffffffffffffff1673ffffffffffffffffffffffffffffffffffffffff163373ffffffffffffffffffffffffffffffffffffffff16146102b9576040517f08c379a00000000000000000000000000000000000000000000000000000000081526004016102b0906109e4565b60405180910390fd5b6102c285610133565b15610302576040517f08c379a00000000000000000000000000000000000000000000000000000000081526004016102f990610a4c565b60405180910390fd5b61030b856103b7565b8273ffffffffffffffffffffffffffffffffffffffff166108fc8390811502906040515f60405180830381858888f1935050505015801561034e573d5f803e3d5ffd5b50847f8645342bb16bf17dde1d74c272a01fc207ecbed8572fc58ee8e49574fd8291198484846040516103839392919061095e565b60405180910390a25050505050565b60015f9054906101000a900473ffffffffffffffffffffffffffffffffffffffff1681565b60015f808381526020019081526020015f205f6101000a81548160ff02191690831515021790555050565b5f604051905090565b5f80fd5b5f80fd5b5f819050919050565b610405816103f3565b811461040f575f80fd5b50565b5f81359050610420816103fc565b92915050565b5f6020828403121561043b5761043a6103eb565b5b5f61044884828501610412565b91505092915050565b5f8115159050919050565b61046581610451565b82525050565b5f60208201905061047e5f83018461045c565b92915050565b5f80fd5b5f80fd5b5f601f19601f8301169050919050565b7f4e487b71000000000000000000000000000000000000000000000000000000005f52604160045260245ffd5b6104d28261048c565b810181811067ffffffffffffffff821117156104f1576104f061049c565b5b80604052505050565b5f6105036103e2565b905061050f82826104c9565b919050565b5f67ffffffffffffffff82111561052e5761052d61049c565b5b6105378261048c565b9050602081019050919050565b828183375f83830152505050565b5f61056461055f84610514565b6104fa565b9050828152602081018484840111156105805761057f610488565b5b61058b848285610544565b509392505050565b5f82601f8301126105a7576105a6610484565b5b81356105b7848260208601610552565b91505092915050565b5f73ffffffffffffffffffffffffffffffffffffffff82169050919050565b5f6105e9826105c0565b9050919050565b6105f9816105df565b8114610603575f80fd5b50565b5f81359050610614816105f0565b92915050565b5f819050919050565b61062c8161061a565b8114610636575f80fd5b50565b5f8135905061064781610623565b92915050565b5f805f60608486031215610664576106636103eb565b5b5f84013567ffffffffffffffff811115610681576106806103ef565b5b61068d86828701610593565b935050602061069e86828701610606565b92505060406106af86828701610639565b9150509250925092565b5f805f805f60a086880312156106d2576106d16103eb565b5b5f6106df88828901610412565b95505060206106f088828901610606565b945050604061070188828901610606565b935050606061071288828901610639565b925050608086013567ffffffffffffffff811115610733576107326103ef565b5b61073f88828901610593565b9150509295509295909350565b610755816105df565b82525050565b5f60208201905061076e5f83018461074c565b92915050565b5f82825260208201905092915050565b7f53656e7420455448206d757374206d617463682074686520616d6f756e7400005f82015250565b5f6107b8601e83610774565b91506107c382610784565b602082019050919050565b5f6020820190508181035f8301526107e5816107ac565b9050919050565b5f819050919050565b6108066108018261061a565b6107ec565b82525050565b5f8160601b9050919050565b5f6108228261080c565b9050919050565b5f61083382610818565b9050919050565b61084b610846826105df565b610829565b82525050565b5f81519050919050565b5f81905092915050565b5f5b83811015610882578082015181840152602081019050610867565b5f8484015250505050565b5f61089782610851565b6108a1818561085b565b93506108b1818560208601610865565b80840191505092915050565b5f6108c882886107f5565b6020820191506108d8828761083a565b6014820191506108e8828661083a565b6014820191506108f882856107f5565b602082019150610908828461088d565b91508190509695505050505050565b6109208161061a565b82525050565b5f61093082610851565b61093a8185610774565b935061094a818560208601610865565b6109538161048c565b840191505092915050565b5f6060820190506109715f83018661074c565b61097e6020830185610917565b81810360408301526109908184610926565b9050949350505050565b7f4f6e6c792061646d696e2063616e2072656365697665206d65737361676573005f82015250565b5f6109ce601f83610774565b91506109d98261099a565b602082019050919050565b5f6020820190508181035f8301526109fb816109c2565b9050919050565b7f4d65737361676520616c72656164792070726f636573736564000000000000005f82015250565b5f610a36601983610774565b9150610a4182610a02565b602082019050919050565b5f6020820190508181035f830152610a6381610a2a565b905091905056fea2646970667358221220e61cc63d933b6c89218a7ca7c3c4aab261406d8e0b397c9a52c69ae6ce6de92a64736f6c63430008150033",
  "immutableReferences": {},
  "source": "// SPDX-License-Identifier: MIT\npragma solidity ^0.8.0;\n\nimport \"./BridgeBase.sol\";\n\ncontract EthereumBridge is BridgeBase {\n    address public admin;\n    \n    constructor() {\n        admin = msg.sender;\n    }\n    \n    function sendMessage(string memory destinationChain, address recipient, uint256 amount) external payable override {\n        require(msg.value == amount, \"Sent ETH must match the amount\");\n        bytes32 messageId = keccak256(abi.encodePacked(block.timestamp, msg.sender, recipient, amount, destinationChain));\n        emit MessageSent(messageId, msg.sender, amount, destinationChain);\n    }\n    \n    function receiveMessage(bytes32 messageId, address sender, address recipient, uint256 amount, string memory sourceChain) external override {\n        require(msg.sender == admin, \"Only admin can receive messages\");\n        require(!isMessageProcessed(messageId), \"Message already processed\");\n        \n        _setMessageAsProcessed(messageId);\n        payable(recipient).transfer(amount);\n        \n        emit MessageReceived(messageId, recipient, amount, sourceChain);\n    }\n}\n",
  "sourcePath": "/home/arhan/eigenlayer-don-3/eth-contracts/contracts/EthereumBridge.sol",
  "compiler": {
    "name": "solc",
    "version": "0.8.21+commit.d9974bed.Emscripten.clang"
  },
  "schemaVersion": "3.4.16",
  "updatedAt": "2024-10-16T19:09:58.156Z",
  "devdoc": {
    "kind": "dev",
    "methods": {},
    "version": 1
  },
  "userdoc": {
    "kind": "user",
    "methods": {},
    "version": 1
  }
}