{
  "contractName": "OracleDataBridge",
  "abi": [
    {
      "inputs": [],
      "stateMutability": "nonpayable",
      "type": "constructor"
    },
    {
      "anonymous": false,
      "inputs": [
        {
          "indexed": true,
          "internalType": "bytes32",
          "name": "messageId",
          "type": "bytes32"
        },
        {
          "indexed": false,
          "internalType": "address",
          "name": "recipient",
          "type": "address"
        },
        {
          "indexed": false,
          "internalType": "uint256",
          "name": "amount",
          "type": "uint256"
        },
        {
          "indexed": false,
          "internalType": "string",
          "name": "sourceChain",
          "type": "string"
        }
      ],
      "name": "MessageReceived",
      "type": "event"
    },
    {
      "anonymous": false,
      "inputs": [
        {
          "indexed": true,
          "internalType": "bytes32",
          "name": "messageId",
          "type": "bytes32"
        },
        {
          "indexed": false,
          "internalType": "address",
          "name": "sender",
          "type": "address"
        },
        {
          "indexed": false,
          "internalType": "uint256",
          "name": "amount",
          "type": "uint256"
        },
        {
          "indexed": false,
          "internalType": "string",
          "name": "destinationChain",
          "type": "string"
        }
      ],
      "name": "MessageSent",
      "type": "event"
    },
    {
      "inputs": [],
      "name": "admin",
      "outputs": [
        {
          "internalType": "address",
          "name": "",
          "type": "address"
        }
      ],
      "stateMutability": "view",
      "type": "function"
    },
    {
      "inputs": [
        {
          "internalType": "string",
          "name": "",
          "type": "string"
        }
      ],
      "name": "chainOracles",
      "outputs": [
        {
          "internalType": "address",
          "name": "",
          "type": "address"
        }
      ],
      "stateMutability": "view",
      "type": "function"
    },
    {
      "inputs": [
        {
          "internalType": "bytes32",
          "name": "messageId",
          "type": "bytes32"
        }
      ],
      "name": "isMessageProcessed",
      "outputs": [
        {
          "internalType": "bool",
          "name": "",
          "type": "bool"
        }
      ],
      "stateMutability": "view",
      "type": "function"
    },
    {
      "inputs": [
        {
          "internalType": "bytes32",
          "name": "",
          "type": "bytes32"
        }
      ],
      "name": "processedMessages",
      "outputs": [
        {
          "internalType": "bool",
          "name": "",
          "type": "bool"
        }
      ],
      "stateMutability": "view",
      "type": "function"
    },
    {
      "inputs": [
        {
          "internalType": "string",
          "name": "chain",
          "type": "string"
        },
        {
          "internalType": "address",
          "name": "oracleAddress",
          "type": "address"
        }
      ],
      "name": "setChainOracle",
      "outputs": [],
      "stateMutability": "nonpayable",
      "type": "function"
    },
    {
      "inputs": [
        {
          "internalType": "string",
          "name": "destinationChain",
          "type": "string"
        },
        {
          "internalType": "address",
          "name": "recipient",
          "type": "address"
        },
        {
          "internalType": "uint256",
          "name": "amount",
          "type": "uint256"
        }
      ],
      "name": "sendMessage",
      "outputs": [],
      "stateMutability": "payable",
      "type": "function"
    },
    {
      "inputs": [
        {
          "internalType": "bytes32",
          "name": "messageId",
          "type": "bytes32"
        },
        {
          "internalType": "address",
          "name": "sender",
          "type": "address"
        },
        {
          "internalType": "address",
          "name": "recipient",
          "type": "address"
        },
        {
          "internalType": "uint256",
          "name": "amount",
          "type": "uint256"
        },
        {
          "internalType": "string",
          "name": "sourceChain",
          "type": "string"
        }
      ],
      "name": "receiveMessage",
      "outputs": [],
      "stateMutability": "nonpayable",
      "type": "function"
    }
  ],
  "bytecode": "0x608060405234801561000f575f80fd5b503360015f6101000a81548173ffffffffffffffffffffffffffffffffffffffff021916908373ffffffffffffffffffffffffffffffffffffffff160217905550610fbb8061005d5f395ff3fe60806040526004361061006f575f3560e01c8063bc79b5761161004d578063bc79b57614610107578063e456b05914610143578063e9e33e8b1461016b578063f851a440146101935761006f565b80631bd31ef61461007357806388ba16ab146100af578063affc215f146100eb575b5f80fd5b34801561007e575f80fd5b5061009960048036038101906100949190610747565b6101bd565b6040516100a6919061078c565b60405180910390f35b3480156100ba575f80fd5b506100d560048036038101906100d09190610747565b6101e2565b6040516100e2919061078c565b60405180910390f35b6101056004803603810190610100919061096e565b6101fe565b005b348015610112575f80fd5b5061012d600480360381019061012891906109da565b610272565b60405161013a9190610a30565b60405180910390f35b34801561014e575f80fd5b5061016960048036038101906101649190610a49565b6102ba565b005b348015610176575f80fd5b50610191600480360381019061018c9190610aa3565b6103a9565b005b34801561019e575f80fd5b506101a76106b3565b6040516101b49190610a30565b60405180910390f35b5f805f8381526020019081526020015f205f9054906101000a900460ff169050919050565b5f602052805f5260405f205f915054906101000a900460ff1681565b5f4233848487604051602001610218959493929190610c07565b604051602081830303815290604052805190602001209050807f1e2fd99e146720cc637dc68804d00fec4c8e871519c4f06f7355687d531fed4233848760405161026493929190610cb8565b60405180910390a250505050565b6002818051602081018201805184825260208301602085012081835280955050505050505f915054906101000a900473ffffffffffffffffffffffffffffffffffffffff1681565b60015f9054906101000a900473ffffffffffffffffffffffffffffffffffffffff1673ffffffffffffffffffffffffffffffffffffffff163373ffffffffffffffffffffffffffffffffffffffff1614610349576040517f08c379a000000000000000000000000000000000000000000000000000000000815260040161034090610d3e565b60405180910390fd5b8060028360405161035a9190610d5c565b90815260200160405180910390205f6101000a81548173ffffffffffffffffffffffffffffffffffffffff021916908373ffffffffffffffffffffffffffffffffffffffff1602179055505050565b60015f9054906101000a900473ffffffffffffffffffffffffffffffffffffffff1673ffffffffffffffffffffffffffffffffffffffff163373ffffffffffffffffffffffffffffffffffffffff1614610438576040517f08c379a000000000000000000000000000000000000000000000000000000000815260040161042f90610dbc565b60405180910390fd5b610441856101bd565b15610481576040517f08c379a000000000000000000000000000000000000000000000000000000000815260040161047890610e24565b60405180910390fd5b61048a856106d8565b5f60028260405161049b9190610d5c565b90815260200160405180910390205f9054906101000a900473ffffffffffffffffffffffffffffffffffffffff1690505f73ffffffffffffffffffffffffffffffffffffffff168173ffffffffffffffffffffffffffffffffffffffff1603610539576040517f08c379a000000000000000000000000000000000000000000000000000000000815260040161053090610e8c565b60405180910390fd5b5f8173ffffffffffffffffffffffffffffffffffffffff16846040516024016105629190610eaa565b6040516020818303038152906040527f09e96008000000000000000000000000000000000000000000000000000000007bffffffffffffffffffffffffffffffffffffffffffffffffffffffff19166020820180517bffffffffffffffffffffffffffffffffffffffffffffffffffffffff83818316178352505050506040516105ec9190610f07565b5f604051808303815f865af19150503d805f8114610625576040519150601f19603f3d011682016040523d82523d5f602084013e61062a565b606091505b505090508061066e576040517f08c379a000000000000000000000000000000000000000000000000000000000815260040161066590610f67565b60405180910390fd5b867f8645342bb16bf17dde1d74c272a01fc207ecbed8572fc58ee8e49574fd8291198686866040516106a293929190610cb8565b60405180910390a250505050505050565b60015f9054906101000a900473ffffffffffffffffffffffffffffffffffffffff1681565b60015f808381526020019081526020015f205f6101000a81548160ff02191690831515021790555050565b5f604051905090565b5f80fd5b5f80fd5b5f819050919050565b61072681610714565b8114610730575f80fd5b50565b5f813590506107418161071d565b92915050565b5f6020828403121561075c5761075b61070c565b5b5f61076984828501610733565b91505092915050565b5f8115159050919050565b61078681610772565b82525050565b5f60208201905061079f5f83018461077d565b92915050565b5f80fd5b5f80fd5b5f601f19601f8301169050919050565b7f4e487b71000000000000000000000000000000000000000000000000000000005f52604160045260245ffd5b6107f3826107ad565b810181811067ffffffffffffffff82111715610812576108116107bd565b5b80604052505050565b5f610824610703565b905061083082826107ea565b919050565b5f67ffffffffffffffff82111561084f5761084e6107bd565b5b610858826107ad565b9050602081019050919050565b828183375f83830152505050565b5f61088561088084610835565b61081b565b9050828152602081018484840111156108a1576108a06107a9565b5b6108ac848285610865565b509392505050565b5f82601f8301126108c8576108c76107a5565b5b81356108d8848260208601610873565b91505092915050565b5f73ffffffffffffffffffffffffffffffffffffffff82169050919050565b5f61090a826108e1565b9050919050565b61091a81610900565b8114610924575f80fd5b50565b5f8135905061093581610911565b92915050565b5f819050919050565b61094d8161093b565b8114610957575f80fd5b50565b5f8135905061096881610944565b92915050565b5f805f606084860312156109855761098461070c565b5b5f84013567ffffffffffffffff8111156109a2576109a1610710565b5b6109ae868287016108b4565b93505060206109bf86828701610927565b92505060406109d08682870161095a565b9150509250925092565b5f602082840312156109ef576109ee61070c565b5b5f82013567ffffffffffffffff811115610a0c57610a0b610710565b5b610a18848285016108b4565b91505092915050565b610a2a81610900565b82525050565b5f602082019050610a435f830184610a21565b92915050565b5f8060408385031215610a5f57610a5e61070c565b5b5f83013567ffffffffffffffff811115610a7c57610a7b610710565b5b610a88858286016108b4565b9250506020610a9985828601610927565b9150509250929050565b5f805f805f60a08688031215610abc57610abb61070c565b5b5f610ac988828901610733565b9550506020610ada88828901610927565b9450506040610aeb88828901610927565b9350506060610afc8882890161095a565b925050608086013567ffffffffffffffff811115610b1d57610b1c610710565b5b610b29888289016108b4565b9150509295509295909350565b5f819050919050565b610b50610b4b8261093b565b610b36565b82525050565b5f8160601b9050919050565b5f610b6c82610b56565b9050919050565b5f610b7d82610b62565b9050919050565b610b95610b9082610900565b610b73565b82525050565b5f81519050919050565b5f81905092915050565b5f5b83811015610bcc578082015181840152602081019050610bb1565b5f8484015250505050565b5f610be182610b9b565b610beb8185610ba5565b9350610bfb818560208601610baf565b80840191505092915050565b5f610c128288610b3f565b602082019150610c228287610b84565b601482019150610c328286610b84565b601482019150610c428285610b3f565b602082019150610c528284610bd7565b91508190509695505050505050565b610c6a8161093b565b82525050565b5f82825260208201905092915050565b5f610c8a82610b9b565b610c948185610c70565b9350610ca4818560208601610baf565b610cad816107ad565b840191505092915050565b5f606082019050610ccb5f830186610a21565b610cd86020830185610c61565b8181036040830152610cea8184610c80565b9050949350505050565b7f4f6e6c792061646d696e2063616e2073657420636861696e206f7261636c65735f82015250565b5f610d28602083610c70565b9150610d3382610cf4565b602082019050919050565b5f6020820190508181035f830152610d5581610d1c565b9050919050565b5f610d678284610bd7565b915081905092915050565b7f4f6e6c792061646d696e2063616e2072656365697665206d65737361676573005f82015250565b5f610da6601f83610c70565b9150610db182610d72565b602082019050919050565b5f6020820190508181035f830152610dd381610d9a565b9050919050565b7f4d65737361676520616c72656164792070726f636573736564000000000000005f82015250565b5f610e0e601983610c70565b9150610e1982610dda565b602082019050919050565b5f6020820190508181035f830152610e3b81610e02565b9050919050565b7f546172676574206f7261636c65206e6f742073657400000000000000000000005f82015250565b5f610e76601583610c70565b9150610e8182610e42565b602082019050919050565b5f6020820190508181035f830152610ea381610e6a565b9050919050565b5f602082019050610ebd5f830184610c61565b92915050565b5f81519050919050565b5f81905092915050565b5f610ee182610ec3565b610eeb8185610ecd565b9350610efb818560208601610baf565b80840191505092915050565b5f610f128284610ed7565b915081905092915050565b7f4661696c656420746f20757064617465206f7261636c652064617461000000005f82015250565b5f610f51601c83610c70565b9150610f5c82610f1d565b602082019050919050565b5f6020820190508181035f830152610f7e81610f45565b905091905056fea264697066735822122065ced42dc23d5b733f29ecd1e317da6e689007015a49a4c4b867521b17c5b25264736f6c63430008150033",
  "immutableReferences": {},
  "source": "// SPDX-License-Identifier: MIT\npragma solidity ^0.8.0;\n\nimport \"./BridgeBase.sol\";\n\ncontract OracleDataBridge is BridgeBase {\n    address public admin;\n    mapping(string => address) public chainOracles;\n    \n    constructor() {\n        admin = msg.sender;\n    }\n    \n    function setChainOracle(string memory chain, address oracleAddress) external {\n        require(msg.sender == admin, \"Only admin can set chain oracles\");\n        chainOracles[chain] = oracleAddress;\n    }\n    \n    function sendMessage(string memory destinationChain, address recipient, uint256 amount) external payable override {\n        // In this case, 'amount' represents the data being sent\n        bytes32 messageId = keccak256(abi.encodePacked(block.timestamp, msg.sender, recipient, amount, destinationChain));\n        emit MessageSent(messageId, msg.sender, amount, destinationChain);\n    }\n    \n    function receiveMessage(bytes32 messageId, address sender, address recipient, uint256 amount, string memory sourceChain) external override {\n        require(msg.sender == admin, \"Only admin can receive messages\");\n        require(!isMessageProcessed(messageId), \"Message already processed\");\n        \n        _setMessageAsProcessed(messageId);\n        address targetOracle = chainOracles[sourceChain];\n        require(targetOracle != address(0), \"Target oracle not set\");\n        \n        // Call the target oracle with the received data\n        (bool success, ) = targetOracle.call(abi.encodeWithSignature(\"updateData(uint256)\", amount));\n        require(success, \"Failed to update oracle data\");\n        \n        emit MessageReceived(messageId, recipient, amount, sourceChain);\n    }\n}\n",
  "sourcePath": "/home/arhan/eigenlayer-don-3/eth-contracts/contracts/OracleDataBridge.sol",
  "compiler": {
    "name": "solc",
    "version": "0.8.21+commit.d9974bed.Emscripten.clang"
  },
  "schemaVersion": "3.4.16",
  "updatedAt": "2024-10-16T19:09:58.158Z",
  "devdoc": {
    "kind": "dev",
    "methods": {},
    "version": 1
  },
  "userdoc": {
    "kind": "user",
    "methods": {},
    "version": 1
  }
}